:10000000000400205D9A0000719A0000397A000017
:100010003F7A0000457A00004B7A000000000000A3
:10002000000000000000000000000000C93B0000CC
:10003000719A000000000000633C0000733C000067
:10004000719A0000719A0000719A0000719A000084
:10005000719A0000719A0000719A0000719A000074
:10006000719A0000719A0000719A0000719A000064
:10007000719A0000719A0000719A0000719A000054
:10008000719A0000719A0000719A0000719A000044
:10009000719A0000719A0000719A0000719A000034
:1000A000719A0000719A0000719A0000719A000024
:1000B000719A0000719A0000719A0000719A000014
:1000C000719A0000719A0000719A0000719A000004
:1000D000719A0000719A0000719A0000719A0000F4
:1000E000719A0000719A0000719A0000719A0000E4
:1000F000719A0000719A0000719A0000719A0000D4
:10010000719A0000719A0000719A0000719A0000C3
:10011000719A0000CDCC0000719A0000719A000025
:10012000B5990000C1990000719A0000719A000011
:10013000719A0000719A0000719A0000719A000093
:10014000719A0000719A00009DF500003DF50000D5
:10015000719A0000719A0000719A0000CD99000018
:10016000719A0000719A0000719A0000719A000063
:10017000719A0000719A0000719A0000719A000053
:10018000719A0000719A0000719A0000719A000043
:10019000719A0000719A0000719A0000719A000033
:1001A000719A0000719A0000719A0000719A000023
:1001B000719A0000719A0000719A0000719A000013
:1004000010B5054C237833B9044B13B10448AFF34E
:1004100000800123237010BD201C0020000000007C
:1004200004A4010008B5034B1BB103490348AFF313
:10043000008008BD00000000241C002004A401006E
:10044000A3F5803A704700BF174B002B08BF134B32
:100450009D46FFF7F5FF00218B460F461348144ACF
:10046000121A13F01DFF0E4B002B00D098470D4BB6
:10047000002B00D098470020002104000D000D48FB
:10048000002802D00C4808F0CDFB13F0E5F920005D
:10049000290005F0B1FB08F0DBFD00BF00000800FB
:1004A00000000000555B000000040020201C00201C
:1004B000ECD20020258C00000000000002484FF420
:1004C000004108F045BF00BF601D002002484FF406
:1004D000804108F03DBF00BF601D002002484FF47E
:1004E000005108F035BF00BF601D002003681847A9
:1004F00010B4D0E901320168541001EB6200D20758
:1005000048BF0A595DF8044B48BFD358184710B488
:10051000D0E901320168541001EB6200D20748BFF4
:100520000A595DF8044B48BFD358184708B5431C17
:1005300004D108490848292208F082F8C0F30323AF
:1005400003F10123203380009B0100F47F701950D8
:1005500008BD00BF8C620100D562010010B5036DBB
:10056000022B88B0044618D10E4B05930023069346
:100570004CF250320023CDE902230B4B0490009340
:1005800004AB0ECB103006F02CFE20680121216553
:1005900008B0BDE81040FFF7C9BF0023036508B0ED
:1005A00010BD00BF5D050000F1040000D0ED087A29
:1005B00090ED0A7A10B577EE277AF6EE006AF4EE3F
:1005C000E67AF1EE10FA88B00446C0ED087A06D952
:1005D000F7EE006AF4EEE67AF1EE10FA03DBB1EE24
:1005E000477A84ED0A7A17EE901A204606F0DBF976
:1005F000094B05930023069342F210720023CDE9C4
:100600000223064B0093049404AB0ECB04F130009C
:1006100006F0E7FD08B010BDAD0500000F050000B5
:1006200010B5054B0360044606F0B2FD204606F007
:1006300067FE204610BD00BF286E010010B50446BD
:100640001030FFF7EDFF204610BD10B504463030E6
:10065000FFF7E6FF204606F005FA204610BD38B544
:100660000023C0E9003304468360154606F0E7FE28
:1006700004F1100006F00AFEB5FA85F12068490978
:10068000FFF754FF204638BD38B5084800F0F7FAA8
:100690000446074800F0F3FA0546064800F0EFFA72
:1006A000820042EA450242EA040038BD382C0020AC
:1006B000282D0020182E002008B5FFF7E5FFBDE823
:1006C0000840C1B2014801F03FBA00BF741D0020CC
:1006D00010B52F492F4807F0ABFD2F492C480722B2
:1006E00014F07CFC28B90221BDE810402B4801F031
:1006F0007BBA2B4926480A2214F070FC08B9002165
:10070000F2E728492248042214F068FC20B9BDE829
:100710001040224801F0C4B823491D48042214F0B7
:100720005DFC034630B901220621BDE810401B489C
:1007300001F064B91D491648042214F04FFC00284A
:10074000DDD01B491248072214F048FC50B9194863
:1007500012F0A8F8042819D8C1B2BDE810400F481B
:1007600001F0F2B914490A48042214F037FC68B9C0
:10077000124812F097F8124B9842044606D80748E0
:1007800001F046F8234601460322CEE710BD00BF24
:10079000DC2A0020ED620100F3620100741D0020DC
:1007A000F0620100FB6201000063010005630100CB
:1007B0000A630100E32A002012630100E02A0020FE
:1007C0003E420F00044BC36003460A6843F8042B03
:1007D000002242605A607047ED04000073B5464D38
:1007E000464C284600F0C6FF2846454D454922465E
:1007F00008F016FA40F20721284606F015F9424B98
:10080000AB624FF07E566423EB622E626E6205F19E
:10081000300006F03BFD2846012106F0D2F83146B3
:10082000284606F0C0F82846384D3949394E224648
:1008300008F0F6F9002240F206212846FFF70FFFE4
:100840002846354D2246314608F0EAF900220521B6
:100850002846FFF704FF3146304E2246284608F06E
:10086000DFF92F4D02220421304600F0F5F9304621
:100870002C4E2246294608F0D3F9002240F20451BA
:10088000304600F0E9F93046274E2246294608F066
:10089000C7F9002240F20551304600F0DDF930463C
:1008A000224E2246294608F0BBF900220B21304691
:1008B00000F0D2F92246294630461D4D08F0B0F925
:1008C000012300934FF4F85242F21203002128460C
:1008D0000EF0E8FD2846174D1749224608F0A0F90A
:1008E000284608F025FD15492246284602B0BDE8F5
:1008F000704008F095B900BF741D0020C0060020AC
:10090000F01C0020010C00000AD723BC981C00201A
:100910004B0600003D060000401C0020482B002034
:10092000E50B0000382C0020282D0020182E002078
:1009300068260020601D0020C9F3000057930000C6
:10094000F0B5254889B00EF0E1FD002842D0234CD7
:10095000256DB5B90223206823652946FFF7E6FD1A
:100960001F4B0494CDE905354CF250320023CDE9FC
:1009700002231C4B009304AB0ECB04F1100006F0D5
:1009800030FC154E184C194D30460EF0BFFD60B9C5
:100990002568164E731913F8013C0A2B11D1002754
:1009A0007755FFF795FE276014E021686229EBD8A0
:1009B0000F480122294407F0BCFD23681844206039
:1009C000E2E7632DEBD00B490722304614F006FB1B
:1009D0000028E4D009B0F0BD68260020981C002053
:1009E0005D050000F1040000402B0020DC2A0020FF
:1009F000B02A0020F3620100F0B50F228BB0002373
:100A000006216948694D07F013FC694806AC0DF0F2
:100A10006BFF67480DF05CFB664B059305A920460C
:100A2000FFF7D0FE94E80F0085E80F00A5F58C6075
:100A30000DF012FB44F6206600275F4B059305A9D5
:100A40002046FFF7BFFECDE90267099B009394E8BB
:100A50000E005A485A4D00F077F905A92046059531
:100A6000FFF7B0FECDE90267099B009394E80E0002
:100A7000544800F069F905A920460595FFF7A2FE44
:100A8000CDE90267099B009394E80E004D4800F001
:100A90001FF905A920460595FFF794FECDE90267E9
:100AA000099B009394E80E00474800F04DF905A912
:100AB00020460595FFF786FECDE90267099B009366
:100AC00094E80E00404800F003F905A9204605957A
:100AD000FFF778FECDE90267099B009394E80E00CA
:100AE0003A4800F031F905A920460595FFF76AFE5E
:100AF000CDE90267099B009394E80E003348344D1A
:100B0000344E00F0E5F8334800F068FEFFF7BCFD16
:100B1000C1B2304801F018F82E4800F07DFED5ED46
:100B20000B7AB8EEE77AF6EE006AC6EE877A4FF0F7
:100B300080434FF07E5128466B622962F1EE677A5E
:100B4000C5ED0A7A05F02FFF234B07934FF47A7215
:100B500000230893EB6A92FBF3F383FB0232CDE9A7
:100B600002321E4906950991009105F1300094E882
:100B70000E0006F036FB1A4D01234FF47A724FF641
:100B8000FF71284608F002FC041EF5DB610401D564
:100B9000FFF792FD220402D5304600F0FDFFA304CA
:100BA000EAD5FFF7CDFEE7E717630100C82A00206A
:100BB00068260020DD040000BD040000482B002052
:100BC000CD040000382C0020282D0020182E0020F5
:100BD000F01C0020741D0020AD0500000F05000072
:100BE000601D002010B504468030FFF719FD04F1A8
:100BF0004000FFF715FD204605F0F6FD204610BD2C
:100C000010B5074B044640F8D43B08F0A4FB04F1B0
:100C1000C00008F0A0FB201D08F072FD204610BDAA
:100C20004063010010B50446FFF7EAFF204640F696
:100C3000F40108F032FA204610BD10B4D0E90132B8
:100C40000168541001EB6200D20748BF0A595DF8F1
:100C5000044B48BFD358184710B5044605F01AFE98
:100C600004F1400006F012FB04F1800006F00EFBD8
:100C70000023C4F8CC30C4F8DC30204610BD05F0A9
:100C80002BBE0000C36810B52BB9044904484FF4CB
:100C9000FD7207F0D5FCBDE810401847486301001D
:100CA0008563010010B586B00446684680E80C00F4
:100CB00006A800E90C00039110E90700034BE3606C
:100CC00084E80700204606B010BD00BF3B0C0000C2
:100CD00084B02DE9F04389B011AE86E80E00149B74
:100CE000DDE91689044604ADE3B100F1C00796E8DA
:100CF0000F0087E80F00134B029321460023C4E93D
:100D00003889104A03932846FFF7CCFF079B0093CE
:100D100095E80E00204605F0E2FD09B0BDE8F0437D
:100D200004B07047C0F8CC300793009395E80E00EC
:100D300005F0D5FD04F1400009B0BDE8F04304B072
:100D400006F026BA050E000084B02DE9F04389B004
:100D500011AE86E80E00149BDDE91689044604AD49
:100D6000E3B100F1D00796E80F0087E80F00134BBE
:100D7000029321460023C4E93A89104A0393284686
:100D8000FFF790FF079B009395E80E00204605F0C3
:100D9000C3FD09B0BDE8F04304B07047C0F8DC30D3
:100DA0000793009395E80E0005F0B6FD04F180006E
:100DB00009B0BDE8F04304B006F0EAB9950E0000B2
:100DC00030B589B0044605F087FD30B1D4F8CC3099
:100DD0001BB104F1C000FFF755FF04AD084B0293AF
:100DE00021460023064A03932846FFF75BFF079B33
:100DF000009395E80E00204605F071FD09B030BD66
:100E0000050E0000F0B58DB00027104B0493059738
:100E100008AE04AD044695E80C0001463046FFF7E5
:100E200041FFD4E93823CDE902230B9B009396E8D8
:100E30000E0004F1400006F0D4F90797009795E8FA
:100E40000E00204605F04BFD0DB0F0BDC10D0000B9
:100E500030B589B0044605F03FFD30B9D4F8DC3038
:100E60001BB104F1D000FFF70DFF04AD084B029356
:100E700021460023064A03932846FFF713FF079BEA
:100E8000009395E80E00204605F046FD09B030BD00
:100E9000950E0000F0B58DB00027104B0493059718
:100EA00008AE04AD044695E80C0001463046FFF755
:100EB000F9FED4E93A23CDE902230B9B009396E88F
:100EC0000E0004F1800006F08CF90797009795E872
:100ED0000E00204605F020FD0DB0F0BD510E0000C3
:100EE000D0F834311E2BDDBF5A1CC0F8342100EB82
:100EF000C3000423D7BF0023C36280F83C100364FF
:100F00007047D0F8342100EBC201034691F8340059
:100F100012B90522DA627047013AC3F834217047EA
:100F20008368026810B544689A1AA24237BF5A1CF7
:100F300001238260197028BFC36210BD2DE9F04102
:100F40000D460446002128461E46DDF81880174647
:100F500013F0A6F90023A363C4F83431E36201233C
:100F60009E42C4E90057A56084F834602363C4F846
:100F70003881204608BF7B21BDE8F04118BF5B21C6
:100F8000FFF7CEBF38B5C36A04468BB9D0F8343109
:100F900083B9D0F8383190F8345013B10A21FFF7F3
:100FA000BFFF012D0CBF7D215D212046FFF7B8FF5B
:100FB000E06A38BD0623C362FAE738B50C46222141
:100FC000FFF7AEFF0546013C14F8011F29B928467A
:100FD0002221BDE83840FFF7A3BF2846FFF7A0FF56
:100FE000F2E710B54C1E14F8011F01B910BDFFF750
:100FF00097FFF8E7D0F8383170B5044643B10A21BD
:10100000FFF78EFF064E0025D4F834319D4200DDF7
:1010100070BD31462046FFF7E4FF0135F4E700BF1D
:1010200091630100C36A70B504469BB9D0F83431AE
:1010300000EBC3039E6BFFF764FF002E054602DD45
:101040002046FFF7D7FF012D0CBF7D215D212046F3
:10105000FFF766FFE06A70BD38B5C36A04460D4607
:10106000EBB9036B01330363D0F8343100EBC303F6
:1010700093F83420012A14D00323C3622046FFF7DB
:10108000B9FF29462046FFF798FF3A212046FFF78F
:1010900047FFD4F8383113B12021FFF741FFE06A50
:1010A00038BD9A6B511C002A9963E7DD2C21FFF7AC
:1010B00037FFE3E738B504461546FFF7CDFF28B9FB
:1010C00029462046BDE83840FFF78BBF38BD10B534
:1010D0000446FFF7C1FF40B97B212046FFF720FF00
:1010E000BDE810400121FFF7FBBE10BD80EAE072B1
:1010F000F0B5A2EBE0720B460A26B2FBF6F506FB52
:10110000152430341F4603F8014B1446092C2A4697
:10111000F3D80028BEBF2D221A70BB1C002203F892
:1011200001298B4200D8F0BD1A78087803F801092C
:1011300001F8012BF5E770B500F10C0604460D46E9
:1011400010463146FFF7D2FF324629462046BDE819
:101150007040FFF7AFBF0000004870479663010082
:10116000002070470020704738B50546064B45F80B
:10117000183B064B83610446284606F009F82846CA
:1011800006F0BEF8204638BDE0630100286E01007D
:1011900010B50446FFF7E8FF2046682107F07DFF01
:1011A000204610BD43681BB18168184608F0D0B8CE
:1011B000704710B4D0E901320168541001EB6200AD
:1011C000D20748BF0A595DF8044B48BFD3581847A7
:1011D00038B5044600231546054A0260C0E90133CC
:1011E000C1600374183006F01FF8E565204638BD6D
:1011F000E06301007FB51E460123009314460546B7
:101200008DF80F100DF10F021821C06805F0ECF9F0
:1012100000230093E86823463246182105F003FABC
:10122000204604B070BD37B50C466B46154601210B
:101230000622FFF7DFFF6B46002085420AD01A78AE
:10124000597841EA022124F810100130032803F1F3
:101250000203F2D103B030BD37B514460D46032268
:1012600000F112010191FFF7DEFF062C28BF0624D2
:1012700001992246284612F0FDFE204603B030BDFB
:1012800007B500238DF8073001220DF10703FFF7A2
:10129000B1FF9DF8070003B05DF804FB30B587B0DF
:1012A000092A1446054628BF09228DF80C100DF1B5
:1012B0000D00194612F0DEFE00230093E868631C5F
:1012C00003AA182105F090F9204607B030BD07B5F4
:1012D0008DF807200DF107030122FFF7DFFF012042
:1012E00003B05DF804FB00000A2910B504461ED9BE
:1012F00014291FD9322920D9652935BF6423C82371
:10130000032204220E49E36501EBC202237C127919
:1013100084F860204BB100220221204600F012F830
:1013200000220121204600F00DF8E06D10BD0A23D7
:101330000022E7E714230122E4E732230222E1E757
:10134000B063010070B50E46012E88B00446114608
:1013500026D11021FFF794FF94F8602000F0A00040
:10136000024342F0400210212046FFF7B0FF1D4B20
:1013700005934FF47A72E36D92FBF3F383FB023231
:10138000CDE902320025184B00930494069504AB76
:101390000ECB04F1180005F024FF2674002010E0A5
:1013A000022E10D11021FFF76BFF102100F0E00298
:1013B0002046FFF78CFF04F1180005F0E9FE00203D
:1013C000207408B070BD032E03D1FFF78DFFE06DD0
:1013D000F7E7052E04D0132EE0D1C36D1360DDE7CF
:1013E0000120EEE7A5110000B311000038B50A2571
:1013F0000446284608F082F850212046FFF740FFB7
:101400000122A06511212046FFF761FF284608F060
:1014100075F8E16D2046FFF767FF0349034806F0C2
:1014200007FF002038BD00BF966301009D630100E7
:10143000004870470064010000207047002070479A
:1014400008B5012383610349034806F0F1FE00203B
:1014500008BD00BF006401009D63010010B560304D
:101460000C4604F0FBFCA0F5FF407F3820800220F2
:1014700010BD43681BB18168184607F069BF70470B
:1014800010B4D0E901320168541001EB6200D207B8
:1014900048BF0A595DF8044B48BFD35818470000AD
:1014A00013B504460023C0E90133237309482060C3
:1014B00001236261A36104F12000019105F0B4FEF3
:1014C000054A019904F1600004F0DAFC204602B0FC
:1014D00010BD00BFB06401000000C07F08B56030DF
:1014E00004F0BCFC00F50043FF339BB2B3F5FF7F73
:1014F000014694BF0248034806F09AFE012008BD49
:10150000086401001A64010070B501298CB0064618
:101510000D46144615D1264B426905930024254BF0
:10152000B3FBF2F3CDE90234234B0490009306940D
:1015300004AB0ECB203005F054FE357320460CB0C2
:1015400070BD022905D12030002405F021FE34733E
:10155000F4E703291BD1037B13B1203005F018FEFB
:10156000337B7461002BE9D00022114B0993114B9E
:10157000B3FBF4F3CDE902320F4B009308960A92C5
:1015800008AB0ECB06F1200005F02BFED6E70529AF
:1015900004D10CB0BDE87040FFF7A0BF132903D100
:1015A000436913600024C9E70429FBD18261C5E7C0
:1015B0007314000040420F0081140000F8B5054686
:1015C000064655F8044B8CB90D4F386818B14FF0EA
:1015D000FF3103F0ABFB346824B9284607F0FCFE6A
:1015E0002C463560386808B103F0B8FBAC4204D033
:1015F000044905488B2207F023F82046F8BD00BFB8
:10160000884D00202C6401006D64010008B503487A
:10161000FFF7D4FFBDE8084007F0E6BEAC4D002060
:1016200008B50348FFF7CAFFBDE8084007F0FABE57
:10163000AC4D002038B50546064B45F8043B044642
:10164000FFF7E4FF284608F0E1F82046FFF7E8FF3F
:10165000204638BD9864010013B5094B044640F894
:10166000603BFFF7E7FF074B236204F12000019086
:1016700005F08EFD019805F043FE204602B010BD36
:10168000B0640100286E010010B50446FFF7E4FFC6
:101690002046702107F001FD204610BD10B504461C
:1016A000FFF7C8FF2046102107F0F7FC204610BDC9
:1016B000044B10B504460360806A08B106F0F2FDE1
:1016C000204610BD646D010010B4D0E901320168FC
:1016D000541001EB6200D20748BF0A595DF8044B71
:1016E00048BFD3581847000008B5431C04D1084927
:1016F0000848292206F0A4FFC0F3032303F10123C5
:10170000203380009B0100F47F70195008BD00BF9A
:101710008C620100D562010010B50446FFF7C8FFD6
:101720002046B82107F0B9FC204610BD70B5066D03
:1017300088B004460D46BEB90223036531460068F1
:10174000FFF7D2FF094B04944FF47A7185FB0151E6
:10175000CDE90536CDE90251054B009304AB0ECB24
:1017600004F1100005F03DFD08B070BD5D050000FE
:10177000F104000073B5164B03600025154B436060
:10178000044629464561061D443007F087FE04F1F2
:10179000580007F021FE2B464FF48052304600954A
:1017A000182107F013FF0C4904F1C00007F0CAFD2F
:1017B00004F1D40007F0BCFD05232046A4F8E8306E
:1017C00084F8EA50C4F8EC5084F8F05802B070BDC8
:1017D00040630100D8790100D0640100F8B50B4ED8
:1017E000002400F1C0050127306803689B68984712
:1017F00056F8043B07FA04F20134052C5D609A6048
:10180000F2D1BDE8F8400DF08FBF00BFD806002030
:1018100090F8E800704700007FB5074B0393002362
:101820000493064B0290009302AB0ECB043007F0FA
:10183000D9FE07B05DF804FB8D1D0000C91600003D
:10184000F7B5144E56F8210003680C469B69032136
:101850001546984756F82400036801AA9B6913218E
:10186000984756F82400019F0368AF42DB6908D10E
:1018700098473A460146084806F0DAFC019803B05A
:10188000F0BD9847019B01462A46044806F0D0FC6B
:10189000F4E700BFD8060020DC640100F06401001A
:1018A00010B5ADF5A96D0446002300934FF4806296
:1018B000012352A903A8FFF741FB94F8E8203D4B10
:1018C00053F82200036802AA9B6913219847029AE1
:1018D000394903A8FFF72FFC3849012203A8FFF775
:1018E0002AFC94F8E8308BB90122354903A8FFF7A8
:1018F00022FC344903A8FFF7EAFB94F8E830042BF4
:1019000016D8DFE803F0102335424F00012B01D138
:101910000422EAE79A1E012A01D80322E5E7042BF4
:10192000E7D10222E1E72849002203A8FFF703FCE0
:1019300003A8FFF777FB03A8FFF724FB23492448FC
:1019400052AA06F057FE0DF5A96D10BD21490022DF
:1019500003A8FFF7F0FB2049012203A8FFF7EBFBE8
:101960001E49022203A8FFF7E6FB1D490322DCE71C
:101970001C49002203A8FFF7DEFB1B49012203A834
:10198000FFF7D9FB19490222CFE71949002203A822
:10199000FFF7D1FB1749012203A8FFF7CCFB16493B
:1019A0000222C2E70B49002203A8FFF7C4FB0A4941
:1019B0000122BAE7D8060020106501001C6501006D
:1019C00024650100376501004765010022660100BA
:1019D000B02A0020526501005E65010067650100C4
:1019E000706501007F6501008E6501009D65010045
:1019F000AC650100B4650100BC6501002DE9F3414F
:101A00000C46042C054611461E4666D8052A08D801
:101A10004AB1511E042906D8DFE801F00728420523
:101A20004900132A4ED0002054E0DFF8108158F806
:101A300024000368DB699847214602463D4806F0CA
:101A4000F7FB3D4B0127186885F8E9700021FFF787
:101A50004BFE2846FFF724FF58F8240003689B69D3
:101A60003246394602B0BDE8F0411847334F57F8C7
:101A700024000368DB69984721460246304806F097
:101A8000D7FB002385F8E9302B4B01211868FFF7BD
:101A90002BFE57F82400036832469B690221E1E7D8
:101AA0003246214602B0BDE8F041FFF7C9BE2548E5
:101AB00012F0E6FC214B53F82400036800229B69D6
:101AC0000521CFE71D4B53F82400036801AA9B6949
:101AD0009847019802B0BDE8F081062C03D1012A95
:101AE00004D0022A1BD04FF0FF30F3E700F1F002E0
:101AF000002322F8023B0133B3F5807FF9D10E4B6E
:101B00000124186885F8E9400021FFF7EDFD85F80C
:101B1000F048402105F1C00007F01AFCE3E700237C
:101B200080F8F03880F8E930034B01211868FFF79E
:101B3000DBFDD8E7C4650100401C0020D80600206A
:101B4000DF650100FB65010038B50C4690F8E81030
:101B5000A14205461AD090F8E93033B100230222A1
:101B6000FFF74CFF002385F8EA30042C85F8E840A5
:101B70000CD8074B53F824000368DB6998472146CB
:101B80000246BDE83840034806F052BB38BD00BFEE
:101B9000D80600201066010090F8E93010B5044620
:101BA0005BB1002390F8E8100222FFF727FF002323
:101BB00084F8EA30C4F8EC3010BD90F8EA20012A2D
:101BC000F6D008480DF0B6FC034618B1012384F89E
:101BD000EA30F1E794F8E81020460122BDE8104011
:101BE000FFF70CBF68260020022970B504460D4699
:101BF00009D180F8EA10BDE8704090F8E8100023A1
:101C00000122FFF7FBBE012904D1FFF749FEC4F80A
:101C1000EC5070BD0029FCD190F8F03863B10B4B4B
:101C200080F8F01880F8E91018680121FFF75CFDD2
:101C3000002384F8EA30ECE790F8E920002AF7D096
:101C400090F8E8100222FFF7D9FEF1E7401C0020CF
:101C50002DE9F0413C4D3D4C3D4E3E4F86B04FF49A
:101C600016534FF4017240F20521284604F0EAFAB7
:101C700022463949284606F0D3FF4FF003084FF0BB
:101C80000003364D8DF80430CDF800800223012288
:101C90000021304604F060FF22463149304606F00C
:101CA000BFFF07220621284604F066FD22462D4983
:101CB000284606F0B5FF4FF4FA624FF483713846B8
:101CC000FFF7EEFB22462849384606F0A9FF274FCA
:101CD000CDF800804FF4A0739622CDE903320221A3
:101CE0000423CDE901312A46EC21384600F072F98F
:101CF00038461F4F1F49224606F092FF29464FF4EF
:101D00008072384601F036FB38461B4F1B4922468D
:101D100006F086FF29460A22194D3846FFF758FA81
:101D200022461849384606F07BFF31464FF4486397
:101D30000A22284601F0BAFD13492246284606B079
:101D4000BDE8F04106F06CBFE8320020C00600207C
:101D500030300020082F0020ED5E0000782F00209A
:101D6000796D0000B116000059160000F83000200F
:101D700048320020CD1E0000E031002099320000E2
:101D80009C300020691100009D3B00002DE9F74FB9
:101D9000DFF820A1044604F1C00801234FF47A7251
:101DA0004FF6FF71404607F0F1FA051E5DDBDFF8E4
:101DB00008B100264FF0010909FA06F32B4213D0AF
:101DC0005AF82600036804F1F0075B694FF40062DB
:101DD0003946984740B194F8EA30022B1CD10246AC
:101DE00039462D480BF016FF0136052EE2D16B0661
:101DF0000DD529484FF4007204F1F0010BF00AFFF1
:101E000094F8F0381BB14021404607F0A1FA23486E
:101E10003221FFF78BFCBEE7214B53F82630002B15
:101E2000E2D04108002238469847071E11DB3A46A7
:101E30001C4901A806F012FA4A4601A91A4804F002
:101E4000F9FA3946194806F0F3F900200DF0C2FD01
:101E5000CAE7BA1C03D1164812F012FBC4E7C3DA72
:101E60003946584606F0E4F9BEE7023593D194F8B6
:101E7000EA30012B8FD12046FFF712FDD4F8EC3069
:101E80000133022BC9BF0023C4F8EC30C4F8EC3096
:101E900084F8EA30BBE700BF68260020981C0020C9
:101EA000C406002002750100E83200202666010009
:101EB00044660100D80600206466010000487047AF
:101EC00072660100002070470020704738B5054653
:101ED000074B45F8A83B074BC0F8A83004462846F6
:101EE00005F056F9284605F00BFA204638BD00BF2C
:101EF00098660100286E010010B50446FFF7E6FF62
:101F00002046E82107F0C9F8204610BD43681BB100
:101F10008168184607F01CBA704700002DE9FF41A0
:101F20000D4F8DF80C104FF00008044615461E4664
:101F300003AA0146CDF800803868012304F054FB61
:101F40003868CDF8008033462A46214604F06BFB02
:101F500040B204B0BDE8F08154360020B0B503F1C2
:101F6000080482B06D46E408A5EBC40402AFA546A0
:101F700002AD8DF8081001249C4206D8111911F801
:101F8000011C29550134E4B2F6E701460022054858
:101F9000009201332A46006804F026FB40B2BD4699
:101FA000B0BD00BF54360020014B584307F094B930
:101FB00040420F0010B4D0E901320168541001EB27
:101FC0006200D20748BF0A595DF8044B48BFD35896
:101FD0001847000070B580F899309DF8103080F8EF
:101FE0009A309DF8143080F89B309DF8183080F8B6
:101FF0009C30BDF81C30A0F89E300025BDF8203084
:1020000080F898101646084A02600446C0E9015557
:10201000A0F8A030A83005F007F9044BE56025745E
:102020001E60204670BD00BF986601005436002037
:1020300008B5183080F8481000F060FB003818BF71
:102040000120404208BD1FB50446407BA37B0BB175
:1020500040F00400E37B0BB140F00200237B0BB1A6
:1020600040F01000237C0BB140F0C80004F11801CF
:10207000019100F083FB019910B1002004B010BD64
:102080000846019100F03AFB0028F6D101990DF1C4
:102090000E0000F057FDBDF80E00FFF785FF019917
:1020A00004F1740000F084FDB0FA80F04009E5E727
:1020B00090F87400C0F30010704738B505460C4620
:1020C000FFF7C1FF98B1D5F888302360D5F88C3080
:1020D0006360D5F89030A3602846FFF7E9FF20B190
:1020E000D5F89430E360042038BD0023FAE74FF0C0
:1020F000FF30F9E738B505460C46FFF7A4FF002886
:102100002DD0B5F978302380EB6FB3F5203F37BF82
:10211000052247F6FF73B3FBF2F31BB26380D5F8D9
:102120008030B3F5203F37BF052247F6FF73B3FB7E
:10213000F2F31BB2A3802846FFF7BAFF68B1D5F8C7
:102140008430B3F5A02F37BF0A2247F6FF73B3FBE5
:10215000F2F31BB2E380042038BDE080FBE74FF0D0
:10216000FF30F9E713B50446CDE9002101F086F808
:10217000DDE9002128B9204602B0BDE81040FFF794
:10218000B9BF204602B0BDE81040FFF796BFA0F8E7
:102190005C10A0F85E2001B12AB9002380F85A3003
:1021A0000374012070470123F8E70529034607D887
:1021B00080F85510012009B959737047587370475A
:1021C000002070470529034607D880F854100120E5
:1021D00009B99973704798737047002070470529B3
:1021E000034607D880F85610012009B9D973704703
:1021F000D8737047002070470729034607D880F836
:102200005710012009B919737047187370470020DF
:102210007047000010B51B4A90F8983042661A4A81
:102220004376044601238266184A837680F860303C
:1022300090F89910C266FFF7B8FF94F89A102046FC
:10224000FFF7CDFF94F89B102046FFF7BBFF94F8F3
:102250009C102046FFF7D0FFB4F8A020B4F89E10E1
:102260002046FFF794FF04F1180000F089F90446B6
:1022700028B90749074805F0DBFF204610BD4FF09D
:10228000FF30FBE71D1F00005D1F0000A91F0000BD
:10229000726601009D63010000B58DB0042208A99B
:1022A000FFF70BFF089813F065FA02460B460B98F0
:1022B000CDE9062313F05EFACDE904010A9813F084
:1022C00059FACDE90201099813F054FADDE9062321
:1022D000CDE90001034805F0ABFF01200DB05DF82A
:1022E00004FB00BF7966010030B5012989B00546BD
:1022F0000B4616D1FFF79CFE044678B91B4B1C4ACF
:102300000495CDE905300023CDE90223194B009354
:1023100004AB0ECB05F1A80004F063FF204609B022
:1023200030BD02290AD10021FFF782FE04460028B1
:10233000F4D105F1A80004F02BFFEFE703290AD040
:10234000052904D109B0BDE83040FFF7A5BF132926
:1023500003D1012313600024E0E740F201118B4216
:10236000F9D1104600F084FFF5E700BF0D1F000013
:1023700040420F00B51F000048B1C36C3BB1036D74
:102380002BB1406DB0FA80F04009404270474FF0E9
:10239000FF30704773B502460846FFF7EDFF0C4665
:1023A000054640BB12F0800FCA7814BF00231023EB
:1023B0009A4220D0CB70CE6C607801230DF10702D9
:1023C000F321B04784F8580098B99DF80730E278B7
:1023D000266D607802F0100223F0100313438DF88D
:1023E00007300DF1070201237321B04784F858002C
:1023F00008B16FF00105284602B070BD37B504463C
:10240000FFF7BAFF70B9E56C607801230DF10702A0
:10241000F321A84784F8580030B99DF8073003F03D
:102420001003E37003B030BD6FF00100FAE70378EA
:102430008B4281BF017092F84A3043F0020382F868
:102440004A30002070472DE9F843064618461D46DD
:10245000FFF792FF884691460446A8B9AB783BB98E
:1024600029463046FFF796FF044608B946F0800635
:10247000EF6C68784B4642463146B847002885F8ED
:10248000580018BF6FF001042046BDE8F8832DE91D
:10249000F0478AB01C4606460F469046002124228B
:1024A00001A8009111F0FCFE2046FFF765FFA0BBDC
:1024B00008F1FF33122B33D8EA4681461FFA88F819
:1024C0001FFA89F3984516D9A37816F809503BB935
:1024D00028462146FFF75EFF16F8095005F07F05F4
:1024E00017F809308AF800508AF8013009F101091B
:1024F0000AF1020AE4E780B94FEA4802013A93B2CE
:10250000256D9DF8001060780DF10102A8470028A4
:1025100084F8580018BF6FF001000AB0BDE8F087DA
:102520006FF00300F9E737B5E0238DF80630B623E6
:1025300005468DF80730FFF71FFF044670B9AB78EA
:102540007BB12B4601220DF107010DF10600FFF7CB
:102550009EFF6B6D04460A2098474CB1204603B09D
:1025600030BD2846FFF74AFF04460028F6D1E8E7C9
:10257000AB78002BF2D12846FFF740FF0446EDE789
:1025800030B58DB00546FFF7F7FE0446002840F051
:10259000AF802846FFF7C7FF0446002840F0A88018
:1025A0002B4601222946D020FFF74DFF0446002884
:1025B00040F09E802B78612B40F09D800190014679
:1025C000252202A811F06CFE28468DF80340FFF783
:1025D000D3FE0446002840F08B802B46192201A927
:1025E0008920FFF730FF044638B92B4610220DF141
:1025F0001D01E120FFF727FF0446BDF82530EB82DF
:10260000BDF805302B839DF80730AB76BDF8093057
:10261000AB83BDF80B30EB839DF80D3085F820308F
:10262000BDF80F306B84BDF81130AB849DF81430C9
:1026300085F826309DF8133085F82730BDF817301F
:102640002B85BDF819306B859DF81B3085F82C3033
:102650009DF81E309DF81F1003F00F0242EA011290
:102660002A819DF81D201B0943EA02136B819DF806
:1026700020302B739DF821306B739DF82230AB73A3
:102680009DF82330EB739DF824302B749DF829308E
:102690006B74BDF827306B829DF82A302B7514BB04
:1026A0002B4601220DF103010220FFF7CCFE9DF81D
:1026B0000330C3F3011385F83830044698B92B462C
:1026C00001220DF10301FFF7BEFE9DF8033085F8EE
:1026D0003930044638B92B4601220DF1030104209C
:1026E000FFF7B1FE04469DF903301B1185F83A301F
:1026F00020460DB030BD6FF00204F9E737B5742302
:1027000004468DF80730FFF737FEA0BB0546234689
:1027100001220DF106017420FFF795FEA0B99DF886
:10272000063013F0030511D023F003038DF80630B3
:10273000012223460DF106010DF10700FFF7A7FE68
:10274000636D0A209847E2E7002DE0D194F8482015
:102750008AB19DF8063002F0030223F0030313430D
:102760008DF8063038B9234601220DF106010DF12E
:102770000700FFF78CFE03B030BD00002DE9F043E9
:102780008BB00023054608460C468DF80F300693A3
:10279000ADF81C300893ADF82430FFF7EDFD0028AC
:1027A00040F0FD8015F0080391F8486005D181F8EC
:1027B00048302046FFF7A2FF07E0012EADF81400D5
:1027C00000F0F08081F84800012015F010071FD0BC
:1027D0002246072104F13F00FFF729FE30B92346C6
:1027E00001220DF10F017520FFF72DFE94F83F3007
:1027F0009DF80F209B0022F01C0203F01C031343E2
:1028000075228DF80F308DF818208DF820300127B3
:10281000AB0622D52246082104F14100FFF707FE4E
:1028200030B9234601220DF10F017020FFF70BFE96
:102830009DF80F3094F8412023F0080302F00802BD
:10284000134307F128026A44702101378DF80F30D5
:1028500002F8101C02F8083CFFB2A90733D0224648
:10286000052104F13D00FFF7E2FD30B923460122C6
:102870000DF10F017420FFF7E6FDEA0709D59DF879
:102880000F3094F83D2003F01F0343EA42138DF804
:102890000F30AB070BD594F83E309DF80F209B000E
:1028A00003F01C0322F01C0213438DF80F3007F1D4
:1028B00028036B44742203F8102C01379DF80F2075
:1028C00003F8082CFFB2690722D52246052104F13E
:1028D0003C00FFF7ACFD30B9234601220DF10F019A
:1028E0007220FFF7B0FD9DF80F3094F83C2023F0E4
:1028F000070302F00702134307F128026A4472211A
:1029000001378DF80F3002F8101C02F8083CFFB2B6
:1029100015F0C00F3AD02246012104F14200FFF722
:1029200086FD60B90A2104F14000FFF780FD30B94F
:10293000234601220DF10F017120FFF784FD6A0685
:102940000BD594F842309DF80F201B0103F01003C3
:1029500022F0100213438DF80F302B060AD59DF894
:102960000F3094F8402023F00F0302F00F021343BE
:102970008DF80F3007F128036B44712203F8102CF7
:1029800001379DF80F2003F8082CFFB228B9234621
:102990003A4608A906A8FFF77AFD84F848600BB00C
:1029A000BDE8F083DFF89891B1F844C0D9F8009001
:1029B00091F91180B1F9127094F9042091F9141071
:1029C00094F939E05A236420BCF5C87F8DF81030A3
:1029D0008DF8110094F8383028BF4FF4C87CB9F155
:1029E000000F3AD107F5163707F299170CFB07FCD1
:1029F0001427BCFBF7FC0A270CF5481CBCFBF7FCB2
:102A000008F5447712FB01F107FB0CF74FF47A72DB
:102A100091FBF2F10902043301EB6701B1FBF3F220
:102A2000832303FB0EF303F58033B2FBF3F322227F
:102A3000FA3B5343323393FBF0F3DBB28DF814309F
:102A4000B4F84630B3F57C6F6CD200223F2BD1B284
:102A500002F1010252D99B08F8E707EE908A9FED38
:102A6000327ADFED326A9FED326AF8EEE77AE7EE0E
:102A7000876A07EE907A9FED2F7AFAEEE87AA7EE52
:102A8000867A07EE90CAB7EE006AF8EE677AF0EE43
:102A9000465AE7EE275A07EE101A07EE902ABAEECA
:102AA000CB7AF8EEE77A67EE277A07EE103AB8EEBF
:102AB000477AE6EEA57AF1EE005A37EE257AC5EEB2
:102AC000876ADFED1D5A66EEA76A07EE90EAB8EE58
:102AD000E77AF0EE467AE7EE257A86EE277AFBEE85
:102AE000097AE6EE877A9FED157A67EE877AFCEE33
:102AF000E77ACDED017A9DF804309FE703EB81136F
:102B0000DBB200278DF8153084F84070234602228E
:102B100005A904A8FFF7BBFC84F8487000287FF4DF
:102B200054AE46E6FF23ECE70000803D000044423F
:102B30006F12033A75021A3B6F12033B9A99594080
:102B40005836002013B5194B91F83E4002461868DC
:102B50009B88ADF8043091F83D300090083304F1C3
:102B600008000DEB00046B4414F8080C13F8083C43
:102B7000184491F83C3008336B4440F2AB7413F8BE
:102B8000083C184441F2B92304FB00334FF47A7037
:102B9000B3FBF0F301339BB2138091F8420018B1FC
:102BA000B1F846100B44138002B010BDB8660100A6
:102BB0002DE9F04F8246A7B00846FFF7DDFB0C4633
:102BC0000090002840F098810490CDE90200CDF8F3
:102BD00013000846FFF7D0FB0A260090009B002B4D
:102BE00040F0348323460F2202A91D20FFF72BFC5F
:102BF0009DF808509DF81610009005F00F0325F081
:102C00007F0B01F020054BEA050501F0100B45EAAA
:102C10000B058AF801309DF809308AF802308AF8ED
:102C200000509DF80B3001932D069DF80A909DF8F9
:102C30000C309DF80D709DF80EC09DF80F209DF88A
:102C400010809DF811009DF815E040F1FC82019D77
:102C50001B0943EA051343EA09398B0943EA8E0E3F
:102C600094F9263094F9205001EE103AB4F922304C
:102C700002EE903AB4F91E3001EE903AA38B02EEC8
:102C8000103AB4F91830120906EE903A9C4B42EA19
:102C90000C1C4CEA07371B68B4F808C094F91A20DA
:102CA00040EA082001F00F06B4F81680B4F92410A9
:102CB00004EE90CA002B40F04D814FEA4808C8EB63
:102CC000D7074FEAE7784FEA570B4BEAC87B0BFB75
:102CD00008F3ABFB0BB808EB43084FEA1B3343EA9E
:102CE00008534FEA283C4FEAE2784FEA021B03FB05
:102CF00008F80BFB0C88A3FB0BB3984416EE903A34
:102D000083FB0727D20A4FEA9B3B4BEA884B42EAF8
:102D1000475202EB0B074FEA670BABF57A4C276380
:102D200007EB87024FEAAC0711EE103A7F434FEAF8
:102D3000E72803FB08F30CFB01F84FEA480808EB0F
:102D4000A3087F1311EE903A6D017D430CFB03FC49
:102D5000ED1005EB6C0512EE101AAD1405F50045EB
:102D60006943CB1312EE901A090401EBA801C9F5CF
:102D70008019A9EB213940F6354101FB09F9B9F178
:102D8000804FA7BF99FBF3F35B004FEA490999FB1A
:102D9000F3F3D910B4F92A70B4F928C049434913A0
:102DA00079439F100CFB07F7803212121D127F131C
:102DB000AAF8042007EB213105FB05F77D4394F8C1
:102DC0002C707D4301EB654194F9275001EBC5114F
:102DD00003EB2113CAF8083094F90E3094F90D5022
:102DE0006421534393FBF1F3534355439B1195FBEC
:102DF000F1F593FBF1F32B44658903F580436B43B5
:102E000014EE905AA0EB051094F90C50554395FB25
:102E1000F1F5A0EB650594F910009B12424392FB7B
:102E2000F1F1E27B6B4301EBC2119A135243921210
:102E30000911514303EB61034FF47A729B12534320
:102E4000304D314A1B1323EAE3739342D4BFCAF8CF
:102E50000C30CAF80C200FCD06AF0FC70FCD94F978
:102E60003AC00FC70FCD0FC795E80F00103587E8A0
:102E70000F000FCD16AF0FC70FCD0FC70FCD0FC768
:102E800095E80F0087E80F00052140F23C50002331
:102E9000C1FB0C031A4626AB03EB86014FEACE3E7C
:102EA00051F8805CA0FB050305FB0233000C40EAEF
:102EB00003401EF17F4E66EB06061EEB00024FEA52
:102EC000234546EB234351F8406CA6FB000106FB6B
:102ED0000511400A550840EAC15045EAC3755E1025
:102EE000401946EB612112F0BDFFCAF81000009BAB
:102EF00013B9012384F84930009827B0BDE8F08F5A
:102F000058360020C0660100A08601000000803A0B
:102F10000000003900000037000080380000A045A4
:102F200000007AC70000003800000036000080472B
:102F300000008049000080390050C3450000803BFC
:102F400000000030000000430000803D0000C84247
:102F50000000000007EE108A07EE907AF8EE475A5C
:102F60001FED165A1FED167A1FED156A1FED173A61
:102F7000F8EEE77A25EE655A27EE657AA7EE865ACF
:102F8000A7EE837A07EE902AF8EEE65AF8EEE76AA3
:102F9000B3EE004A66EE846A27EE077A5FED217A87
:102FA00066EE876AF6EE003AE5EE256AF7EE005A1D
:102FB00086EEA75A5FED267AC4ED0D6AE6EEA37A97
:102FC000F8EEE16AF0EE670A07EE905AF8EEE77A5B
:102FD00066EEA06A67EEA07A5FED2E1A8AED055ABA
:102FE00067EEA07AB8EE422AE7EE866A5FED327AA3
:102FF00066EEA76AF0EE657AE6EEA17A22EE272A5F
:10300000FDEEC27A17EE903A002B00F01681B8EE72
:10301000C17A60EEA07A27EE037AF0EE006A27EE1E
:10302000277A07EE901AF8EEE77AF8EEE22A67EED2
:10303000A07AB4F92A30A7EEA67AF5EE007A27EE48
:10304000277A5FED467A5FED466AA2EEA77A07EE31
:10305000909AF8EEE77A76EEE76A5FED4A7AE7EE65
:10306000676A5FED4B7A1FED4B7A66EEA76AC6EE94
:10307000827A06EE903A27EE877AB4F928301FED6F
:10308000502A67EE072AF8EEE66A62EE872A07EE14
:10309000103AB8EEC77A66EEA76A27EE217A66EE96
:1030A000A76A27EE277A94F82C30A6EE827A06EEED
:1030B000903AF8EEE66A94F9273026EE833A06EE67
:1030C000903AA2EE837AF8EEE66A1FED623AA6EE37
:1030D000837A5FED636AE7EE267ACAED067A94F9A1
:1030E0000C3006EE903AF8EEE66A94F90D3066EE92
:1030F000A36AF8EE644A66EE856A07EE103AE4EEDB
:10310000846A94F90E3007EE900AB8EEC77AF8EEAA
:10311000677A27EE067A77EEE66AF0EE657AE7EEF2
:10312000057A07EE103ABAEEC67A638927EE057A79
:10313000E7EE057AF0EE674A07EE903AFBEEC77AC3
:10314000E37B67EEA47A67EEA67A06EE903A94F9EE
:10315000103007EE103ABAEEE57AF8EE666A27EE1E
:10316000057AA6EE867A1FED876A27EE877AE7EE64
:10317000877AF4EEC67AF1EE10FA61DCF5EEC07AE9
:10318000F1EE10FA01D55FED8E7ACAED077A94F967
:103190003A30324D9FED327A07EE903A0FCD06AFBE
:1031A0000FC70FCD0FC70FCD0FC795E80F00103514
:1031B00087E80F000FCD16AF0FC70FCD0FC70FCD8C
:1031C0000FC795E80F00F8EEE77AB1EE045AA7EEC4
:1031D000857A87E80F0007EE90EA26AB03EB8603BB
:1031E000F0EE476AF8EE677A9FED1E7A13ED205AEB
:1031F00077EEC77A85EE067A0121B14037EE257A5F
:1032000027EE267AC7EE876A13ED107AC7EE067AA4
:103210009FED157A77EEA57A76EEA56A27EE877A86
:1032200007EE901AF8EEE77A67EE277A66EEA77A4D
:1032300085EEA77A8AED087A59E6DFED0C7A4CE73D
:10324000F0EE467AA1E7636D0A209847013E16F03A
:10325000FF067FF4C3AC022300934DE640670100F4
:103260000080A74400000044BD3706340000000081
:10327000014B1860704700BF58360020014B18689A
:10328000704700BF5836002000487047C0670100F3
:10329000002070470020704738B50546064B45F8BA
:1032A000103B064B03610446284603F071FF284695
:1032B00004F026F8204638BD1C680100286E010085
:1032C00010B50446FFF7E8FF2046A02105F0E5FE13
:1032D000204610BDF0B50C4E87B0002714461D46A1
:1032E0008DF8141005AA410000973068039101235E
:1032F00003F07AF90399306800972B46224603F0D1
:1033000092F940B207B0F0BD5C360020B0B503F1D1
:10331000080482B004F4FC7402AFADEB040D02ADFE
:103320008DF8081001249C4206D8111911F8011CCF
:1033300029550134E4B2F6E7410000220448009226
:1033400001332A46006803F04FF940B2BD46B0BDD4
:103350005C36002010B4D0E901320168541001EB52
:103360006200D20748BF0A595DF8044B48BFD358E2
:103370001847000070B50023C0E90133064B04462E
:1033800040F8103B0D46164603F04EFF034B2665F2
:103390001D60204670BD00BF1C6801005C36002027
:1033A00030B587B0054603A80C4600F094F90DF13E
:1033B0000A0000F055F905ABBDF90A000093039926
:1033C00004AB05F1600200F0C7F9DDED047ADDED34
:1033D000056AFDEEE77AB1EE047A17EE903AC6EE92
:1033E000877A23800420FDEEE77A17EE903A638017
:1033F00007B030BDFFF7D4BFB1F5004F0D4A38B567
:1034000028BF4FF400410446002352F8330088429D
:103410000BD302EBC30320651D79284600F0E6F9C3
:10342000284600F004FA206D38BD0133082BECD19A
:103430000025F2E7D46701006C2310B580F8543002
:103440000E4BC3650E4B83650446543000F096F86E
:1034500000F0A6F80B4805F02FFF04F1600000F023
:10346000ADF800F0F1F8216D2046FFF7C5FF0649E1
:10347000064804F0DDFE002010BD00BFD53200007C
:103480000D330000A0860100C06701009D630100AC
:103490001FB502A9FFF784FFBDF90E300093BDF9F7
:1034A0000A20BDF90C30BDF90810034804F0C0FE35
:1034B000002005B05DF804FBC767010010B50B469E
:1034C000012B88B0114615D1174B05930023026DCF
:1034D0000693164B93FBF2F3DA17CDE90232144B45
:1034E0000490009304AB0ECB103003F07AFE002062
:1034F00008B010BD022B03D1103003F049FEF6E7EF
:10350000032B04D108B0BDE81040FFF775BF052BB1
:1035100004D108B0BDE81040FFF7BABF132B04BFB9
:10352000036D1360E3E700BF0D1F000040420F0072
:10353000553300001346074A30B4146834B1A56807
:103540000A46AC460146207830BC60476FF07E00EA
:1035500030BC7047603600201346074A30B4146808
:1035600034B165680A46AC460146207830BC6047F5
:103570006FF07E0030BC70476036002007B550B158
:10358000064B012218600DF107011046FFF7D2FF2C
:1035900003B05DF804FB6FF07E00F9E760360020B1
:1035A00007B5242301220DF1070100208DF8073013
:1035B000FFF7D2FF03B05DF804FB00002DE9F04FE8
:1035C00087B00446122201A9AA20FFF7B3FF1C4FBF
:1035D000064601AD04F1240B95F801A015F8020B85
:1035E0000AEB002040F38D0012F0B2F880460AF09A
:1035F0000300894612F0ACF802460B460020114940
:103600000EF0E6F902460B464046494612F00AF92A
:1036100057F804AB80465046894612F0ABF8024694
:103620000B464046494612F0FDF812F0CBFB44F839
:10363000040BA345D0D1304607B0BDE8F08F00BFE2
:103640003C6801000000244007B5042200230DEB74
:103650000201AA200193FFF77FFF03B05DF804FB8E
:10366000F7B500230646012201A9A5208DF80430F4
:10367000FFF772FF041E29DB0823012201A9302075
:103680008DF80430FFF768FF051E22DB25446DB27C
:10369000012201A90220FFF74DFF041E16DB9DF851
:1036A00004302544DB07EFB26DB2F1D5022201A947
:1036B0000920FFF73FFF041E08DB9DF804209DF85A
:1036C00005303C4403EB022364B23380204603B050
:1036D000F0BD2C46FAE7F7B502230646012201A900
:1036E000A5208DF80430FFF737FF041E2FDB0923D8
:1036F000012201A930208DF80430FFF72DFF051EAF
:1037000028DB25446DB2012201A90220FFF712FF38
:10371000041E1CDB9DF804302544DB07EFB26DB2BC
:10372000F1D5032201A90620FFF704FF041E0EDBDA
:103730009DF805309DF804201B0203EB02439DF821
:10374000062013443C4443F3170364B2336020461D
:1037500003B0F0BD2C46FAE707EE900AB8EEE77A20
:10376000DFED217A67EE277AC3ED007AD2ED016AA8
:10377000D2ED007A92ED036A009BE7EE267AD2ED55
:10378000026A67EE266AE7EE267A06EE901AF8EEEF
:10379000E66AE6EE267A92ED046A27EE066AE6EE1F
:1037A000867A92ED056A27EE066A26EE076AE6EE4D
:1037B000867A92ED066A26EE866AE6EE867A92EDC3
:1037C000076A27EE066A26EE266AE6EE867A92ED0C
:1037D000086A27EE066A26EE077A27EE267AE6EED4
:1037E000877AC3ED007A70470000803B37B5054605
:1037F00001220DF10701A620FFF79CFE041E13DB3A
:103800009DF8073005F0070023F0070318438DF8F3
:10381000070001220DF10701A620FFF79DFE0028F9
:10382000A6BF241864B20446204603B030BD37B5A5
:10383000054601220DF10701A720FFF77BFE041EBC
:1038400013DB9DF8073005F0070023F0070318434A
:103850008DF8070001220DF10701A720FFF77CFE7C
:103860000028A6BF241864B20446204603B030BD29
:1038700000487047606801000020704700207047D2
:1038800043681BB18168184605F062BD704710B4EB
:10389000D0E901320168541001EB6200D20748BF41
:1038A0000A595DF8044B48BFD358184770B5044611
:1038B0001E4600250C4B0360C0E90155C16011464E
:1038C000103002F0C9FFE0680849266503F0A4F94A
:1038D000E0682A46082103F082F9E0680F2103F02E
:1038E0002AFA204670BD00BFE46801008096980067
:1038F0002DE9F84F0446C068884603F0C9F9E0682E
:10390000036886219B689847E068036800219B68EC
:1039100098470746E068036800219B6898478346FC
:10392000E068036800219B6898470646E0680368E2
:1039300000219B6898478246E068036800219B68E5
:1039400098470546E068036800219B6898478146D0
:10395000E06803F0B2F9FBB243EA0B27F3B243EAA3
:103960000A26EBB243EA0925A8F80070A8F802601D
:10397000A8F80450BDE8F88F37B514460D466946DF
:10398000FFF7B6FF062C28BF0624224669462846C4
:1039900010F070FB204603B030BD38B50446C06857
:1039A0000D4603F075F9E068036845F080019B68F7
:1039B0009847E068036800219B6898470546E068DF
:1039C00003F07BF9E06803F0C4F9E8B238BD37B51D
:1039D0000446C0680191154603F05AF9E068019960
:1039E00003689B689847E068036829469B68984786
:1039F000E06803F062F9E06803B0BDE8304003F02E
:103A0000A8B90000B1F5485F28BF4FF448510B4AF0
:103A100010B500230C4652F83310A14209D302EB33
:103A2000C30301651A790C461B21FFF7D0FF20461E
:103A300010BD01330A2BEED10022F5E78C6801009E
:103A400030B587B01E4B039300251E4B02900093A8
:103A5000049502AB0ECB0446103002F05DFF0F213F
:103A60002046FFF79AFF1B28014622D12A4618213B
:103A70002046FFF7ACFF28221C212046FFF7A7FFB6
:103A800010221F212046FFF7A2FF216D2046FFF7DD
:103A9000B9FF702218212046FFF799FF4FF4805399
:103AA00009490A48A4F8543004F0C2FB284607B07C
:103AB00030BD07481B2204F0BBFB4FF0FF30F6E798
:103AC000813800008F380000606801009D630100AC
:103AD00066680100F8B505460E4614461F46FFF716
:103AE0005CFF20EA0402D2B23C4022433146284621
:103AF000BDE8F840FFF76BBF80231A461821FFF797
:103B0000E9BF002380221821FFF7E4BF38B500F198
:103B100010050446284602F028FF0C212046FFF736
:103B20003CFF552805D0284602F013FF4FF0FF3028
:103B300038BD40231A4619212046FFF7CBFF0C2140
:103B40002046FFF72AFFAA28284604D002F001FFEA
:103B50006FF00100ECE702F0FCFE0020E8E70B4606
:103B6000012B10B5114603D1FFF7C6FF002010BD91
:103B7000022B02D1FFF7C5FFF8E7032B03D1BDE805
:103B80001040FFF73FBF052B03D1BDE81040FFF702
:103B9000BDBF132B04BF036D1360E7E710B5044BE3
:103BA000044640F8103B02F01FFE204610BD00BF47
:103BB000E468010010B50446FFF7F0FF20465821E5
:103BC00005F06BFA204610BD1EF0040F0CBFEFF39A
:103BD0000880EFF30980816911F8021C002932D1B5
:103BE00001B590E80F10E047BDE800508CE80300F5
:103BF000244B93E80600914208BF70471A6041B910
:103C00001EF0100F10D1204B186820F00100186032
:103C10000AE02CE9F00F1EF0100F08BF2CED108AFF
:103C200081F822E0C1F838C0906B92F8221061F060
:103C3000FF0E1EF0100F08BFB0EC108AB0E8F00FB6
:103C400080F309887047114A13689942FAD801B580
:103C500052F821C00FC8E047BDE80050CCF8000082
:103C6000704701B501F090FABDE80140EFF3098C0F
:103C7000BEE701B501F04CFABDE80140EFF3098C55
:103C8000B6E700000007002034EF00E0CC69010037
:103C900008B5014630B96FF0030000F0F4F96FF099
:103CA000030008BD132001F0FBFD30B94FF0FF30D9
:103CB00000F0E9F94FF0FF30F3E70020F1E70000F2
:103CC00008B5EFF305832BB9EFF3108313B9EFF3C6
:103CD000118333B16FF0050000F0D5F96FF00500E6
:103CE00008BDDFF808C000DFFAE700BF913C000024
:103CF000EFF310832BB9EFF31180003818BF0120C8
:103D0000704701207047000038B50546A0B18468AF
:103D100002686CB114F0030302D1C1680F2926D8E0
:103D20006FF00801002002F053F80024204638BD4F
:103D3000C368002BF4D11546104BD3F8900078B12E
:103D400000F05BFB0446A0B10123A3700023C4E98B
:103D50000233F322094B2270094A65605A66E5E78F
:103D6000D3F880000122102100F0D4FAEAE71546CA
:103D7000EBE76FF0040102F02BF8D7E7EC06002028
:103D80005D3E000070B5054610B10378F32B07D0F7
:103D900028466FF0030102F01BF86FF0030070BDBE
:103DA000836863B1284601F04BFB00226FF00201EB
:103DB00001F0CEFCA8680028F4D101F0AFFBAB788D
:103DC000002613F001032E700FD0094BD3F890405A
:103DD000294624B1204600F02AFB3046DFE7D3F81D
:103DE000800000F0CBFA2046D9E71846D7E700BF9D
:103DF000EC060020930710B502F0010422D400F174
:103E00000C0384B153E8000F00EA01028A4203D098
:103E1000BFF32F8F002005E020EA010243E80024D1
:103E200004B1EFE710BD53E8000F084203D1BFF320
:103E30002F8F002005E020EA010243E8002404B1AE
:103E4000F1E7EFE7C06801EA00031CB18B4218BF3D
:103E50000020E7E7002B08BF0020E3E7F8B58468FF
:103E6000054604B9F8BD94F82320616AA76828467E
:103E7000FFF7C0FF064638B1204601F0EAFA0022FB
:103E80003146204601F064FC3C46EAE7F8B50D46B1
:103E900017461E46044620B10378F32B01D10029B2
:103EA00007DA20466FF0030101F092FF6FF0030084
:103EB000F8BDFFF79FFF0028FAD186B131464320B5
:103EC00001F0EEFC40B1074B5E692046314601F03F
:103ED000A5FA756286F823706FF00100E8E76FF0CD
:103EE0000200E5E7EC0600202DE9F041064620B18E
:103EF0000378F32B01D1002909DA6FF00301304672
:103F000001F066FF6FF003052846BDE8F08100F17F
:103F10000C0353E8002F42EA010543E8005000B1CA
:103F2000F7E7B4681CB9204601F0F8FAECE794F81A
:103F30002320616AD4F808803046FFF75BFF07460C
:103F400078B194F823309B0756BF656A054620EA8E
:103F50000505204601F07DFA00223946204601F091
:103F6000F7FB4446DEE7000008B50246EFF30583A1
:103F700033B100206FF0050101F02AFF002008BDD9
:103F8000FFF7B6FE0028F4D1DFF808C0104600DFC6
:103F9000F5E700BF093D000038B502460D46EFF3D6
:103FA00005834BB192B96FF00301104601F010FF89
:103FB0006FF00304204638BDFFF79AFE0028F1D1C8
:103FC000DFF830C0104600DF0446F3E71378F32B28
:103FD000E9D1002DE7DB02F10C0353E8001F41EAB1
:103FE000050443E8004000B1F7E7104601F014F97A
:103FF000E0E700BFE93E0000F8B504460E4617466C
:104000001D46EFF3058343B18CB920466FF00301E1
:1040100001F0DEFE6FF00300F8BDFFF769FE002837
:10402000F2D1DFF82CC020462B4600DFF4E72378DE
:10403000F32BEAD1002DE8D1002EE6DB3A463146DB
:104040002046FFF7D7FE002808BF6FF00200E3E725
:104050008D3E000008B50246EFF305833BB11046E4
:104060006FF0050101F0B4FE6FF0050008BDFFF729
:104070003FFE0028F3D1DFF808C0104600DFF5E767
:10408000853D000070477047EFF310832BB9EFF3C5
:104090001180003818BF01207047012070470000D0
:1040A00070B5464C237A012B00F0858033B14FF078
:1040B000FF3001F081FE4FF0FF3070BD404DD5E97B
:1040C0000B61EB68E3652B8AA4F854303046AB688B
:1040D000236400F007F908B1C4F88060D5E90561F0
:1040E000304600F0FFF808B9D4F880606667D5E97B
:1040F0000761304600F0F6F808B9D4F88060A6678A
:10410000D5E90961304600F0EDF808B9D4F88060CF
:10411000E6676E6B3EB1D6E902233168304600F0A7
:104120004BF9C4F88460AE6B3EB1D6E90223316826
:10413000304600F041F9C4F88860EE6B3EB1D6E934
:1041400002233168304600F037F9C4F88C602E6CD9
:104150003EB1D6E902233168304600F02DF9C4F8AB
:1041600090606E6C3EB1D6E902233168304600F0B3
:1041700023F9C4F89460AE6C3EB1D6E902233168ED
:10418000304600F019F9C4F89860EE6C3EB1D6E9FB
:1041900002233168304600F00FF9C4F89C602D6DA1
:1041A0003DB1D5E902232968284600F005F9C4F895
:1041B000A0500123237200207FE700BFEC060020FF
:1041C0005C69010070B5254D2B7A012B07D06FF08B
:1041D000060001F0F1FD4FF0FF34204670BD01F004
:1041E000A3FB10B94FF0FF30F3E71D4A1D4E1E49E7
:1041F0007068FF2382F8223092F82230D26863F090
:10420000FF03DB4314BFB3FA83F32023C3F120037E
:10421000C2F30222934298BF531CFE2202FA03F318
:104220000F4ADBB2D37701F059FC04460028D9D1FC
:1042300001F08CFC286101F071FC0C4801F000F9E0
:1042400001F064F93368DB074CBF0223032383F3D7
:104250001488BFF36F8F02232B72BEE7EC06002099
:1042600000ED00E05C690100733C000008070020DD
:10427000704738B504460D46FFF704FF294620462F
:10428000BDE8384001F05ABD08B5FFF7F1FFEFF384
:10429000058333B16FF0050001F08EFD6FF005006E
:1042A00008BDFFF7F1FE0028F4D1DFF808C000DFF9
:1042B000F6E700BFA140000008B5EFF3058333B176
:1042C0006FF0050001F078FD6FF0050008BDFFF705
:1042D000DBFE0028F4D1DFF808C000DFF6E700BFFE
:1042E000C541000010B598B140EA010313F007037F
:1042F0000ED117290AD90160083910220C188460E0
:1043000042600B5081684A60C3600123184610BDAB
:104310000023FBE7F0B5034670B369B332F0030046
:104320002AD10F3121F0070103F10806344636681F
:104330006568301B25F00305401B814203D93068B6
:104340000028F3D1F0BD5F681D680F445F602B4407
:10435000083B5868874288BF5F6063680A431BB99F
:10436000626004F10800EDE723F00303E018E65073
:10437000426020600830E5E70020E3E710B580B137
:10438000C1B1A1F1080400F108030022A34209D140
:10439000596821F003044168091B41603AB95A6029
:1043A000012010BD19681A4621B10B46EEE71B68C3
:1043B0001360F5E70846F4E730B5C0B189B1C2B182
:1043C000CBB10024C0E9014202FB01F41D190160D8
:1043D000C360436105611846013904D1A21A99509E
:1043E0000121084630BD851805602846F4E70146DE
:1043F000F7E71146F5E71946F3E710B50346A8B10C
:1044000000F1140252E8000F10B9BFF32F8F04E03F
:10441000016842E8001404B1F4E738B1043353E80A
:10442000002F511C43E8001404B1F8E710BD30B56B
:10443000F0B1C3688B421BD803698B4218D900F1D5
:1044400014031A680A60BFF35F8F53E8002F0C68EB
:104450009442F6D143E8001505B1F2E7043050E884
:10446000003F5A1E40E8002101B1F8E7002030BDAE
:104470006FF00300FBE7EFF310832BB9EFF311802C
:10448000003818BF0120704701207047D1E9013280
:1044900023B19A608A681AB153607047C262F9E723
:1044A000036370472DE9F84F8846074638B131B1AC
:1044B000B0FA80F3B1FA81F10B441F2B06DC6FF0E8
:1044C0000301002001F09AFC002470E008F10306CB
:1044D00026F003060C3606FB00F9F2B194683CB1F5
:1044E000A30702D1D368332B05D86FF00801E8E7A2
:1044F000D368002BF9D1D2E90453D2F800A03DB122
:1045000015F0030B01D1994554D96FF00901D8E793
:10451000002BFAD11CB19B460CE092461546274B66
:10452000D3F8A000D8B1FFF768FF0446A0B14FF060
:10453000010B35BB214B0022D86F4946FFF7EAFE3D
:104540000546C0B9BBF1000F06D01C4BD3F8A00044
:10455000214658B1FFF76BFF6FF00401B1E7D3F8C4
:10456000800001223421FFF7D5FEDEE7D3F880007A
:10457000FFF704FFF0E74A4600210FF091FE4BF0F1
:10458000020BFA2323700023C4E90983C4E90B3327
:10459000A36032462B4684F802B0C4F804A0394622
:1045A00004F10C00FFF708FF044B054A1A67204688
:1045B000BDE8F88F002CE4D1B1E700BFEC06002085
:1045C0005146000010B500F1280353E8002F12B93E
:1045D000BFF32F8F04E0511E43E8001404B1F4E749
:1045E0000AB9002010BDC06A01220028F9D0811C40
:1045F000D1E84F3FC1E8442F04B1F9E7DBB2002B0B
:10460000F0D08068F1E7036B30B5E3B1CD780024DA
:10461000DA78AA420FD31A46C1E901248AB191601F
:10462000A4B16160283050E8003F5A1C40E80021E6
:1046300001B1F8E730BD5A681C46002AECD0134699
:10464000E6E7C162ECE7C1E90133C1620163E9E772
:10465000F8B5877804468FB3C56801460027284619
:10466000FFF714FF277005F10C042046FFF7DFFE6B
:10467000AB68002B48D02046FFF7BFFE0446002859
:1046800042D0284600F0DCFE3A460646394601F0A4
:104690005FF8304600F030FF6A6A8168064604F130
:1046A0000C000FF0E7FCF9232370A770F368E370A8
:1046B00021462846BDE8F840FFF7A5BF8568AB68EE
:1046C000002BF5D05B78832BF2D1284600F0B8FEA2
:1046D0003A460646394601F03BF8304600F00CFFFA
:1046E00006466A6A806804F10C010FF0C3FCF368A7
:1046F0000BB1E2781A7000232370214605F10C00FB
:10470000BDE8F840FFF793BEF8BD00002DE9F04189
:104710000C4617469846054618B10378FA2B00D187
:1047200041B928466FF0030101F068FB6FF0030008
:10473000BDE8F0818368C3B15B78832B15D100F0AD
:104740007FFE01220646002101F002F8304600F00B
:10475000D3FE06466A6A806821460FF08BFCF0683B
:104760000028E5D007700020E2E705F10C00FFF714
:1047700044FE064670B121466A6A0C300FF07AFC9E
:104780000024F9233370B470F77031462846FFF7E0
:104790003AFFE8E7B8F1000F10D04146932001F04E
:1047A0007FF840B1074B2846596900F037FEEFF318
:1047B0000983C3E902476FF00100B9E76FF0020017
:1047C000B6E700BFEC0600202DE9F0410F46154684
:1047D0009846044618B10378FA2B00D141B9204617
:1047E0006FF0030101F00AFB6FF00300BDE8F081F8
:1047F000FFF7E8FE064600283AD001462046FFF7BC
:1048000045FE626A06F10C0138460FF033FC0DB12B
:10481000F3782B70002504F10C07357031463846CB
:10482000FFF705FEA3680BB90020DFE73846FFF766
:10483000E4FD06460028F7D0204600F001FE294698
:104840000746012200F084FF384600F055FE626AF8
:104850008168074606F10C000FF00CFCF923337059
:10486000B570FB68F37031462046FFF7CCFEDBE7FE
:10487000B8F1000F10D04146832001F011F840B18B
:10488000074B2046596900F0C9FDEFF30983C3E9DE
:1048900002756FF00100A9E76FF00200A6E700BF04
:1048A000EC06002008B5064B08219A6ED86EFFF77B
:1048B000F9FD044BD864B0FA80F04009404208BDCD
:1048C0005C690100EC0600202DE9F04106460F4628
:1048D00090461C46EFF305834BB196B930466FF016
:1048E000030101F08BFA6FF00300BDE8F081FFF7E0
:1048F000C2FD0028F1D1DFF84CC03046234600DF6E
:10490000F3E73378FA2BE9D1002FE7D0002CE5D17B
:1049100006F10C00FFF771FD054680B1726A394659
:104920000C300FF0A7FBF9232846C5E901762B7060
:10493000AC7085F8038000F06FFC2046D5E76FF07F
:104940000200D2E70D470000F8B504460F461646B0
:104950001D46EFF3058343B18CB920466FF0030188
:1049600001F04CFA6FF00300F8BDFFF784FD00285A
:10497000F2D1DFF848C020462B4600DFF4E7237869
:10498000FA2BEAD1002FE8D0002DE6D12046FFF720
:1049900019FE054670B100F10C01626A38460FF04D
:1049A00069FB0EB1EB7833702846EC6000F034FC04
:1049B0000020D9E76FF00200D6E700BFC94700002A
:1049C000EFF310832BB9EFF31180003818BF0120EB
:1049D000704701207047000070B5A8B38468D0E923
:1049E00000566CB114F0030302D1C2681B2A1AD816
:1049F0006FF00801002001F0F1F90024204670BD9D
:104A0000C368002BF4D1124BD3F8940030B9D3F81B
:104A1000800001221C21FFF77DFC01E0FFF7EDFC87
:104A2000044660B10123F522A3700023C4E90233D8
:104A3000C4E904332270E67065602376DEE76FF028
:104A4000040101F0CBF9D9E705460646DBE700BFD4
:104A5000EC060020284B70B55D6904460E4635B95A
:104A60006FF0070101F0BAF94FF0FF3070BD10B1DF
:104A70000378F52B07D020466FF0030101F0AEF963
:104A80006FF00300F2E7037E53B9C0E90353EB6A0A
:104A9000436103B11861EC62012323760020E5E74E
:104AA000C278D1070DD5C168A9420AD1FF2B06D122
:104AB0006FF00F0101F092F96FF00200D6E70133B9
:104AC000EBE7002EF8D093070AD5E06895F920307F
:104AD00090F920209A4203DA80F8203000F0C2FCDE
:104AE0003146532000F0DCFE18B12946204600F084
:104AF00095FC6FF00100B9E7EC0600202E4B5A69D7
:104B000070B5044632B96FF0070101F067F94FF054
:104B1000FF3070BD10B10378F52B07D020466FF041
:104B2000030101F05BF96FF00300F2E7037E33B994
:104B30006FF00E0101F052F96FF00200E9E7C16871
:104B4000914202D06FF00D01F4E7013BDBB2037636
:104B500013BB43690BB1016919612169F1B14B6163
:104B600092F92130D56ADDB982F82030A36883B18B
:104B7000204600F065FC06462A46294600F0E8FD7E
:104B8000F36A6361C4E9036503B11C610123F46244
:104B90002376002000F0C2FC0020BAE7D362DFE7F2
:104BA000E978890706D5A96821B191F920108B42CF
:104BB000B8BF0B466D69D6E7EC06002070B5044619
:104BC00010B10378F52B07D020466FF0030101F0F8
:104BD00005F96FF0030070BD037EBBB16369C06867
:104BE0000BB122691A61226902B3536190F9212045
:104BF000C36AEBB990F92030934203D080F82020AB
:104C000000F030FCA068F8B900F088FCA07800261D
:104C100010F001002670DED0134BD3F894502146DB
:104C2000DDB12846FFF703FC3046D4E7C362DDE779
:104C3000D978890706D5996821B191F920108A425F
:104C4000B8BF0A465B69D4E7204600F0F9FB0022B2
:104C50006FF0020100F07CFDD4E7D3F88000FFF78D
:104C60008DFB2846B7E700BFEC0600202DE9F04198
:104C70000446002601270CB9BDE8F081E378D4F89A
:104C800014801B0712D5A36826767BB1204600F05E
:104C9000D7FB00220546114600F05AFDEB6A63611E
:104CA000C4E9035603B11C61EC6227764446E2E78F
:104CB00010B4C3789B071DD5C06890F92120C36A42
:104CC000DC78A40709D59C688C4208BF8C6824B1A5
:104CD00094F92040A242B8BF22465B69002BEFD175
:104CE00090F92030934205D080F820205DF8044BE5
:104CF00000F0B8BB5DF8044B7047000008B50246F1
:104D0000EFF3058333B100206FF0050101F066F881
:104D1000002008BDFFF754FE0028F4D1DFF808C0DA
:104D2000104600DFF5E700BFD949000008B502468C
:104D3000EFF305833BB110466FF0050101F04EF82B
:104D40006FF0050008BDFFF73BFE0028F3D1DFF848
:104D500008C0104600DFF5E7554A000008B50246D6
:104D6000EFF305833BB110466FF0050101F036F813
:104D70006FF0050008BDFFF723FE0028F3D1DFF830
:104D800008C0104600DFF5E7FD4A000008B50246FE
:104D9000EFF305833BB110466FF0050101F01EF8FB
:104DA0006FF0050008BDFFF70BFE0028F3D1DFF818
:104DB00008C0104600DFF5E7BD4B0000EFF310839D
:104DC0002BB9EFF31180003818BF01207047012084
:104DD00070470C30D0E85F3F13B9BFF32F8F04E06A
:104DE0005A1EC0E8512F01B1F4E798B2003818BF3D
:104DF0000120704730B500F10C02C189D2E85F3F55
:104E0000994202D8BFF32F8F04E05C1CC2E8554FD3
:104E100005B1F3E7C0899BB2984294BF00200120FE
:104E200030BD0000F8B515464FF6FE73421E9A429B
:104E300006460F4601D8884207D26FF003010020D2
:104E400000F0D2FF00242046F8BD7DB1AC682A688E
:104E500044B114F0030302D1E9680F2922D86FF09E
:104E60000801ECE7EB68002BF9D11546114BD3F89C
:104E7000980080B1FFF7C1FA0446A8B10123A370DE
:104E80000023F622A3600B4B22700B4A6560A781BA
:104E9000E6819A66D7E7D3F8800001221021FFF758
:104EA00039FAE9E71546EAE76FF0040100F09CFFE4
:104EB000C9E700BFEC0600202D4F000070B5054685
:104EC00010B10378F62B07D028466FF0030100F0ED
:104ED0008BFF6FF0030070BD836863B1284600F05C
:104EE000AFFA00226FF0020100F032FCA86800283F
:104EF000F4D100F013FBAB78002613F001032E7001
:104F00000FD0094BD3F89840294624B12046FFF72B
:104F10008EFA3046DFE7D3F88000FFF72FFA2046FD
:104F2000D9E71846D7E700BFEC060020836810B524
:104F300004465BB1FFF74DFF40B1204600F080FA18
:104F40000022BDE81040114600F002BC10BD38B58B
:104F5000054610B10378F62B07D028466FF0030101
:104F600000F042FF6FF0030038BD84683CB100F0F0
:104F700067FA0122002100F0EBFB0020F4E7FFF7C5
:104F800039FF38B928466FF0100100F02DFF6FF09F
:104F90000200E9E72046E7E738B50D46044610B1C0
:104FA0000378F62B07D020466FF0030100F01CFFBA
:104FB0006FF0030038BDFFF70CFF68B975B12946E3
:104FC000632000F06DFC20B1064B2046596900F0CB
:104FD00025FA6FF00100EDE70020EBE76FF002002B
:104FE000E8E700BFEC06002010B50446EFF30583A8
:104FF00033B100206FF0050100F0F6FE002010BD77
:10500000FFF7DCFE0028F4D1DFF808C0204600DFFF
:10501000F5E700BF254E000010B502460C46EFF341
:10502000058343B182B910466FF0030100F0DCFE46
:105030006FF0030010BDFFF7C1FE0028F2D1DFF8CA
:1050400024C0104600DFF5E71378F62BEBD1002CD7
:10505000E9D11046FFF7BDFE002814BF00206FF015
:105060000200E7E7994F000010B50446EFF305830F
:1050700043B184B920466FF0030100F0B5FE6FF034
:10508000030010BDFFF79AFE0028F2D1DFF830C010
:10509000204600DFF5E72378F62BEBD12046FFF71B
:1050A000A9FE20B1204600F0B7F80020E9E720462D
:1050B0006FF0100100F098FE6FF00200E1E700BF12
:1050C0004F4F000008B50246EFF305833BB1104691
:1050D0006FF0050100F088FE6FF0050008BDFFF7D6
:1050E0006DFE0028F3D1DFF808C0104600DFF5E7B9
:1050F000BD4E000010B5D0E85F3F5A1C914200D869
:105100000022C0E8542F04B1F5E798B210BD0000AA
:1051100038B51C4C00F016FDE3680133E36000F085
:10512000BBF9002000F0FAF9236D03B19847226C17
:1051300032B3A369E16B994203D0D969E36301B942
:10514000DA61DA69C2B9237A022B19D1656ABDB175
:10515000E36B95F9202093F920309A4210D128462C
:1051600000F077F9E06B00F08FF9284600F0CEF9F7
:10517000236CE563EB6103E0013ADA61002AE2D0D7
:1051800038BD00BFEC06002070B5224C04F1560576
:1051900004F15A06B4F85410D5E85F3F13B9BFF3D1
:1051A0002F8F04E05A1EC5E8502F00B1F4E79BB2E0
:1051B0005BB33046FFF79EFFE36D53F8200020B34A
:1051C0000378F13B082BE5D801A252F823F000BF89
:1051D000F551000095510000FB5100009551000071
:1051E00095510000FF51000003520000955100004E
:1051F00007520000236E9847CCE7636EFBE7A36E6F
:10520000F9E7E36EF7E7236FF5E7BDE870400020AC
:1052100000F084B9EC06002070B5164C0546B4F8D1
:10522000541004F15602D2E85F3F994202D8BFF30E
:105230002F8F04E0581CC2E8560F06B1F3E79BB26B
:10524000994205D829460220BDE87040FFF711B801
:1052500004F15800FFF74EFFE36D43F82050637AE6
:1052600023B9054B4FF080525A6070BD0123A372E1
:10527000FBE700BFEC06002000ED00E0EFF3108339
:105280002BB9EFF31180003818BF012070470120BF
:1052900070470378F12B00D07047C068F9E7000031
:1052A00010B5C469621CD0E904310CD103B1596155
:1052B00042691AB113610023436101E0074A136395
:1052C0000023C36110BD1BB1DA6959612244DA6160
:1052D0004269002AEED1014AD362F1E7EC060020D0
:1052E00010B50A4A90F9201001234370536A1C320A
:1052F0001BB193F920408C4205DCC0E9023290607A
:1053000003B1D86010BD1A469B68F1E7EC06002097
:10531000014B5869704700BFEC06002010B5002310
:10532000038083789A07044608D513F0100F016BA9
:105330000E4B0FD0D3F88400FFF779F8A378DB0782
:1053400012D50A4BD3F88800214638B1BDE8104089
:10535000FFF76DB8586FFFF711F8EFE7BDE81040A1
:10536000D3F88000FFF70AB810BD00BFEC0600209C
:1053700008B500F049FDDFF810C000DF4FF0FF3145
:10538000002000F01FFDFEE7B9570000C278D207E9
:10539000034601D4FFF7C2BF042205494270002230
:1053A000C2604A6B826002B1D0604B63704700BF3D
:1053B000EC060020930710B502F0010422D400F19E
:1053C000280384B153E8000F00EA01028A4203D0A7
:1053D000BFF32F8F002005E020EA010243E80024FC
:1053E00004B1EFE710BD53E8000F084203D1BFF34B
:1053F0002F8F002005E020EA010243E8002404B1D9
:10540000F1E7EFE7806A01EA00031CB18B4218BFA5
:105410000020E7E7002B08BF0020E3E710B591F973
:10542000202083681BB193F92040944205DAC1E93A
:105430000230816003B1D96010BD18469B68F1E766
:1054400083689A68826002B1D0600022DA601846F0
:105450007047C2682AB18368936003B1DA600023A1
:10546000C360704710B5044664B12378F12B07D0B0
:10547000FFF7EFFF01462046BDE81040FFF7CEBF23
:10548000E468F1E710BD00000123014643700148C4
:10549000FFF7C4BF0807002038B5164DEC6A44B3C7
:1054A000E369013BE36123BB6378732B06D009D822
:1054B000532B0BD003F0DF03432B0DD12046FFF716
:1054C000E8FE09E003F0EF03832BF6E72046FFF741
:1054D000E0FE2146FFF7ECFB2046FFF7BAFFFFF79F
:1054E000D3FF246924B1E369002BDDD0002363617D
:1054F000EC6238BDEC06002090F82230826B13F08D
:10550000100F0CBF6020202010447047022343700E
:10551000014B9861704700BFEC06002070B5124D3A
:1055200004462E7A696990B9022E0FD16C6A6CB16B
:1055300094F9202091F920309A4207DD2046FFF7A8
:1055400088FF0846FFF7CCFE6670AC6170BD022E86
:1055500005D190F9202091F920309A42F1DC2046C3
:10556000BDE87040FFF790BFEC0600202DE9F04F3A
:1055700085B00391019028B96FF0030100F022FC7F
:105580000024BEE0002A4AD0966846B1B00702D196
:10559000D368432B06D86FF008010020EEE7D368EC
:1055A000002BF8D1D2E90449976944B1610703D1CE
:1055B000B9F1000F40F0B1806FF00A01EDE72FB1B3
:1055C000791E372903D96FF00B01E6E71827B9F1E7
:1055D000000F40F0A680D2E900B3029366BB564D9F
:1055E000D5F8880008B3FEF708FF064600283DD02E
:1055F0004FF00108DFF840A1002C42D1B9F1000FB3
:105600001DD14E4BDAF88400D3F85490B8B1FEF7B0
:10561000F4FE0546E0B148F01008344623E0934616
:105620001446182791460292D9E7D5F88000012246
:105630004421FEF76FFED8E74FF00008DAE7DAF80A
:10564000740022464946FEF765FE05460028E4D16F
:10565000B8F1000F13D0DAF8885031464DB1284622
:10566000FEF7E5FE002548F0020864B96FF004017A
:1056700093E7DAF88000FEF781FE2C46F3E7454613
:10568000F1E72546344640F2F11222800022C4E9B7
:105690000222C4E90422C4E90622C4E90922C4E9B9
:1056A0000B25A9F14002029BE3702A44019BA263EF
:1056B0007FB2234AE363FD2184F80280C4F804B07A
:1056C00084F8207084F821706184C4F834902A60D2
:1056D0001A4A1268530718D4A36B342218460021C3
:1056E0000EF0DEFD174A4263019A82634FF080722A
:1056F000C263039A0262144BCAF860302046FFF777
:105700000DFF204605B0BDE8F08F29F00302443AB2
:10571000CC21281D0EF0C4FDDEE7002F7FF450AF32
:10572000182719F0070F7FF447AF0849A9F148007F
:1057300088427FF650AF3FE7EC0600205C6901002D
:10574000A52E5AE27153000075570000B7FFFF7F86
:1057500038B505461446FFF7CFFE01602846FFF72F
:105760009FFD1CB1BDE83840FFF7D8BEBDE838400A
:10577000FFF78ABE10B54378332B04460CD1416A3B
:1057800090F82320FFF716FE014628B1204600229C
:10579000BDE81040FFF7DCBF10BD10B504468069BE
:1057A00018B100221146FFF7D3FF6378232B02BF05
:1057B000A36800229A6110BD70B50F4C267A022EA4
:1057C00018D1636AB3B16569E86AFFF74FFA2846F2
:1057D000FFF7E3FF04F11C00FFF732FE4670A06103
:1057E000EFF30983AB63002363612846BDE8704093
:1057F000FFF7CCBD70BD00BFEC06002010B504461D
:1058000010B10378F12B07D020466FF0030100F0B0
:10581000D9FA6FF0030010BD437803F00F03022B99
:105820001ED0032B2BD0012B2ED1FFF712FEE06AE6
:10583000FFF71CFA2046FFF7B0FF6178022926D156
:105840001548FFF7FDFD154B41709861EFF3098294
:10585000A26300225A612046FFF798FD0020DAE794
:105860000E4B1A7A022A02D15B6A002BDFD16FF04D
:105870000201204600F0A6FA6FF00200CBE7FFF726
:10588000E8FDFFF70DFDD2E76FF00201F2E700201F
:10589000FFF744FEDFE700BF08070020EC0600200A
:1058A00038B51F4C237A022B35D1636A002B34D0D4
:1058B00063694A1C587016D1226B002172B94FF0EF
:1058C000FF30C3E90421D86159B10B611548FFF7D6
:1058D000B7FD02234370A061012038BD1146126953
:1058E000ECE72363F2E7E26A002012B1D569A9422E
:1058F0000BD2C3E90420D96158B10361002AE5D075
:10590000D0695361411AD161E0E71046491B126921
:10591000EBE7E362F2E70020DFE71846DDE700BFD0
:10592000EC0600200807002038B50D4C0D48A26D8C
:105930000D4D0021FFF71AFE636EA8625BB1984718
:1059400058B9E26DE96C206EFFF710FEA8640038CC
:1059500018BF012038BD0120FCE70020FAE700BF96
:105960005C690100355D0000EC06002010B50446BE
:10597000EFF3058333B100206FF0050100F022FA48
:10598000002010BDFFF77AFC0028F4D1DFF808C032
:10599000204600DFF5E700BF6D55000008B5EFF3C6
:1059A000058313B1054B586908BDFFF767FC002854
:1059B000F8D1DFF80CC000DFF6E700BFEC060020EE
:1059C0001153000010B5044600F02AFAEFF30583E6
:1059D0003BB120466FF0050100F0F4F96FF00500CF
:1059E00010BDFFF74BFC0028F3D1DFF808C02046BC
:1059F00000DFF5E7FD57000030B50C4D6B6C002261
:105A000013B11C698C420AD9C0E9022301611BB1A0
:105A10001C699860611A19612AB1D06030BD1A46BC
:105A2000091BDB68ECE76864F8E700BFEC060020C0
:105A30002DE9F041184D6C6C54B323696E69013B3C
:105A400023610127236913BBE3680BB1A2689A6045
:105A50006B640023E86C1A4604F11801FEF734FF6A
:105A600058B1D5E90583214603206B61FEF701FC9F
:105A70006B6913B9B04508BF0026E378012B09D143
:105A800061692046FFF7B8FF6C6C002CDAD16E61BB
:105A9000BDE8F0816770F7E7EC06002008B5FEF777
:105AA00001FF18B9034B044A1A6508BD4FF0FF30D7
:105AB000FBE700BFEC060020315A000007B50446A2
:105AC0004FF0FF33002269462046FEF73DFF0028D5
:105AD000F6D1DDE900309847F2E70000A8B10C4BA1
:105AE0001B68B3FBF0F00138B0F1807F0DD2094B99
:105AF000FF2283F823204FF0E02306221A61586129
:105B000000209861044B187070474FF0FF307047C9
:105B1000A408002000ED00E0B03C0020074B1A78FC
:105B20002AB100221A70064B4FF080625A604FF083
:105B3000E022136943F0010313617047B03C002079
:105B400000ED00E04FF0E0231B6970474FF0FF309D
:105B50007047000008B5094B094A1A60094B9B1AA7
:105B6000094A1360094B0A4A1A600A4B9B1A0A4AEF
:105B7000136000F051F800F07DF800BF183D0020E0
:105B80000000002000040020143D002048500020A8
:105B9000F0D2002000800220445000200E4838B58A
:105BA0000E4B03600B250E4B45601C24C4608360C4
:105BB000FFF7A4F80B4B18600B480C4BC460C0E90E
:105BC00000350B4B8360FFF799F80A4B1860BDE86E
:105BD00038400DF041BE00BFE43C0020306A0100B7
:105BE000F83C0020F43C0020B43C00203D6A010059
:105BF000C83C0020C43C0020FAF7FEBE024B4FF028
:105C0000FF311868FFF792B8F43C0020014B186888
:105C1000FFF7A4B8F43C002038B501F0BFFE094AF4
:105C20000949956808460023EC5840F8044B0433B2
:105C3000B3F5E07FF8D1916005F080FEBDE8384013
:105C400000F015B800ED00E0000400207047704738
:105C500008B500F043F8FFF7F9FFFFF79FFFFFF7E4
:105C6000F6FF02F0E1FEBDE80840FFF7C5BFFEF712
:105C70000BBB0000114C124B23614FF48053636146
:105C80004423E3600F4BA360182307B5A3610E48BC
:105C90000E4B236022460021FFF768FE034628B919
:105CA0000B49009022460B4802F0C6FEFEF704FBAB
:105CB0000023094900931A46F5E700BF204D002054
:105CC000203D0020444D0020515C0000576A010037
:105CD0005C6A01001D010180786A01001FB5064B56
:105CE0000FCB6C4684E80F002046FFF707F8034B04
:105CF000186004B010BD00BF906A0100884D0020FC
:105D000073B506460C46154602F090FE58B90634A7
:105D10002ABF064B064953F824100023009332464D
